{
  "contractName": "Election",
  "abi": [
    {
      "inputs": [],
      "stateMutability": "nonpayable",
      "type": "constructor"
    },
    {
      "inputs": [],
      "name": "checkstate",
      "outputs": [
        {
          "internalType": "enum Election.State",
          "name": "",
          "type": "uint8"
        }
      ],
      "stateMutability": "view",
      "type": "function",
      "constant": true
    },
    {
      "inputs": [
        {
          "internalType": "string",
          "name": "_name",
          "type": "string"
        },
        {
          "internalType": "string",
          "name": "_proposal",
          "type": "string"
        },
        {
          "internalType": "address",
          "name": "_owner",
          "type": "address"
        }
      ],
      "name": "addCandidate",
      "outputs": [],
      "stateMutability": "nonpayable",
      "type": "function"
    },
    {
      "inputs": [
        {
          "internalType": "address",
          "name": "_voter",
          "type": "address"
        },
        {
          "internalType": "address",
          "name": "_owner",
          "type": "address"
        }
      ],
      "name": "addVoter",
      "outputs": [],
      "stateMutability": "nonpayable",
      "type": "function"
    },
    {
      "inputs": [
        {
          "internalType": "uint256",
          "name": "_candidateId",
          "type": "uint256"
        },
        {
          "internalType": "address",
          "name": "_voter",
          "type": "address"
        }
      ],
      "name": "vote",
      "outputs": [],
      "stateMutability": "nonpayable",
      "type": "function"
    },
    {
      "inputs": [
        {
          "internalType": "uint256",
          "name": "_id",
          "type": "uint256"
        }
      ],
      "name": "displayCandidate",
      "outputs": [
        {
          "internalType": "uint256",
          "name": "",
          "type": "uint256"
        },
        {
          "internalType": "string",
          "name": "",
          "type": "string"
        },
        {
          "internalType": "string",
          "name": "",
          "type": "string"
        },
        {
          "internalType": "uint256",
          "name": "",
          "type": "uint256"
        }
      ],
      "stateMutability": "view",
      "type": "function",
      "constant": true
    },
    {
      "inputs": [
        {
          "internalType": "address",
          "name": "_owner",
          "type": "address"
        }
      ],
      "name": "startElection",
      "outputs": [],
      "stateMutability": "nonpayable",
      "type": "function"
    },
    {
      "inputs": [
        {
          "internalType": "address",
          "name": "_owner",
          "type": "address"
        }
      ],
      "name": "endElection",
      "outputs": [],
      "stateMutability": "nonpayable",
      "type": "function"
    },
    {
      "inputs": [
        {
          "internalType": "address",
          "name": "delegateAddress",
          "type": "address"
        },
        {
          "internalType": "address",
          "name": "ownerAddress",
          "type": "address"
        }
      ],
      "name": "delegateVote",
      "outputs": [],
      "stateMutability": "nonpayable",
      "type": "function"
    },
    {
      "inputs": [],
      "name": "showWinner",
      "outputs": [
        {
          "internalType": "string",
          "name": "",
          "type": "string"
        },
        {
          "internalType": "uint256",
          "name": "",
          "type": "uint256"
        },
        {
          "internalType": "uint256",
          "name": "",
          "type": "uint256"
        }
      ],
      "stateMutability": "view",
      "type": "function",
      "constant": true
    },
    {
      "inputs": [
        {
          "internalType": "uint256",
          "name": "_candidateId",
          "type": "uint256"
        }
      ],
      "name": "showResult",
      "outputs": [
        {
          "internalType": "uint256",
          "name": "",
          "type": "uint256"
        },
        {
          "internalType": "string",
          "name": "",
          "type": "string"
        },
        {
          "internalType": "uint256",
          "name": "",
          "type": "uint256"
        }
      ],
      "stateMutability": "view",
      "type": "function",
      "constant": true
    },
    {
      "inputs": [],
      "name": "candidate_Count",
      "outputs": [
        {
          "internalType": "uint256",
          "name": "",
          "type": "uint256"
        }
      ],
      "stateMutability": "view",
      "type": "function",
      "constant": true
    },
    {
      "inputs": [],
      "name": "voter_Count",
      "outputs": [
        {
          "internalType": "uint256",
          "name": "",
          "type": "uint256"
        }
      ],
      "stateMutability": "view",
      "type": "function",
      "constant": true
    },
    {
      "inputs": [
        {
          "internalType": "address",
          "name": "voterAddress",
          "type": "address"
        }
      ],
      "name": "voterProfile",
      "outputs": [
        {
          "internalType": "string",
          "name": "name",
          "type": "string"
        },
        {
          "internalType": "uint256",
          "name": "Vote",
          "type": "uint256"
        },
        {
          "internalType": "bool",
          "name": "delegated",
          "type": "bool"
        },
        {
          "internalType": "address",
          "name": "delegate",
          "type": "address"
        }
      ],
      "stateMutability": "view",
      "type": "function",
      "constant": true
    },
    {
      "inputs": [],
      "name": "getVoter",
      "outputs": [
        {
          "internalType": "address",
          "name": "",
          "type": "address"
        },
        {
          "internalType": "address",
          "name": "",
          "type": "address"
        }
      ],
      "stateMutability": "view",
      "type": "function",
      "constant": true
    }
  ],
  "bytecode": "0x608060405234801561001057600080fd5b5033600960006101000a81548173ffffffffffffffffffffffffffffffffffffffff021916908373ffffffffffffffffffffffffffffffffffffffff1602179055506000600660006101000a81548160ff0219169083600281111561007857610077610082565b5b02179055506100b1565b7f4e487b7100000000000000000000000000000000000000000000000000000000600052602160045260246000fd5b61251f80620000c16000396000f3fe608060405234801561001057600080fd5b50600436106100ea5760003560e01c8063b7e032641161008c578063e615047311610066578063e615047314610240578063e6a5e61d1461025e578063ed6ad2f81461027a578063fa106d40146102ac576100ea565b8063b7e03264146101d1578063e445b817146101f1578063e5ed5b1e14610224576100ea565b8063209d2523116100c8578063209d2523146101435780632b37f53c146101615780638dc837711461018057806392a1c745146101b3576100ea565b806302d947ef146100ef57806307e4b70a1461010b5780630b32ff7714610127575b600080fd5b6101096004803603810190610104919061162c565b6102c8565b005b6101256004803603810190610120919061166c565b61057c565b005b610141600480360381019061013c91906117df565b610740565b005b61014b6108d6565b6040516101589190611879565b60405180910390f35b6101696108e0565b6040516101779291906118a3565b60405180910390f35b61019a600480360381019061019591906118cc565b61095b565b6040516101aa9493929190611978565b60405180910390f35b6101bb610b2f565b6040516101c89190611879565b60405180910390f35b6101d9610b39565b6040516101e8939291906119cb565b60405180910390f35b61020b6004803603810190610206919061166c565b610c4e565b60405161021b9493929190611a24565b60405180910390f35b61023e60048036038101906102399190611a70565b610eb2565b005b610248611093565b6040516102559190611b27565b60405180910390f35b6102786004803603810190610273919061166c565b6110a6565b005b610294600480360381019061028f91906118cc565b6111f4565b6040516102a393929190611b42565b60405180910390f35b6102c660048036038101906102c19190611a70565b611385565b005b600160028111156102dc576102db611ab0565b5b600660009054906101000a900460ff1660028111156102fe576102fd611ab0565b5b1461033e576040517f08c379a000000000000000000000000000000000000000000000000000000000815260040161033590611bcc565b60405180910390fd5b600260008273ffffffffffffffffffffffffffffffffffffffff1673ffffffffffffffffffffffffffffffffffffffff16815260200190815260200160002060009054906101000a900460ff166103ca576040517f08c379a00000000000000000000000000000000000000000000000000000000081526004016103c190611c38565b60405180910390fd5b6000821180156103dc57506007548211155b61041b576040517f08c379a000000000000000000000000000000000000000000000000000000000815260040161041290611ca4565b60405180910390fd5b600360008273ffffffffffffffffffffffffffffffffffffffff1673ffffffffffffffffffffffffffffffffffffffff16815260200190815260200160002060010160009054906101000a900460ff16156104ab576040517f08c379a00000000000000000000000000000000000000000000000000000000081526004016104a290611d10565b60405180910390fd5b6001600360008373ffffffffffffffffffffffffffffffffffffffff1673ffffffffffffffffffffffffffffffffffffffff16815260200190815260200160002060010160006101000a81548160ff02191690831515021790555081600360008373ffffffffffffffffffffffffffffffffffffffff1673ffffffffffffffffffffffffffffffffffffffff16815260200190815260200160002060020181905550600080838152602001908152602001600020600301600081548092919061057390611d5f565b91905055505050565b600960009054906101000a900473ffffffffffffffffffffffffffffffffffffffff1673ffffffffffffffffffffffffffffffffffffffff163373ffffffffffffffffffffffffffffffffffffffff161461060c576040517f08c379a000000000000000000000000000000000000000000000000000000000815260040161060390611e19565b60405180910390fd5b600160028111156106205761061f611ab0565b5b600660009054906101000a900460ff16600281111561064257610641611ab0565b5b14610682576040517f08c379a000000000000000000000000000000000000000000000000000000000815260040161067990611bcc565b60405180910390fd5b600960009054906101000a900473ffffffffffffffffffffffffffffffffffffffff1673ffffffffffffffffffffffffffffffffffffffff168173ffffffffffffffffffffffffffffffffffffffff1614610712576040517f08c379a000000000000000000000000000000000000000000000000000000000815260040161070990611eab565b60405180910390fd5b6002600660006101000a81548160ff0219169083600281111561073857610737611ab0565b5b021790555050565b600960009054906101000a900473ffffffffffffffffffffffffffffffffffffffff1673ffffffffffffffffffffffffffffffffffffffff163373ffffffffffffffffffffffffffffffffffffffff16146107d0576040517f08c379a00000000000000000000000000000000000000000000000000000000081526004016107c790611e19565b60405180910390fd5b8073ffffffffffffffffffffffffffffffffffffffff163373ffffffffffffffffffffffffffffffffffffffff161461083e576040517f08c379a000000000000000000000000000000000000000000000000000000000815260040161083590611f3d565b60405180910390fd5b6007600081548092919061085190611d5f565b919050555060405180608001604052806007548152602001848152602001838152602001600081525060008060075481526020019081526020016000206000820151816000015560208201518160010190816108ad9190612169565b5060408201518160020190816108c39190612169565b5060608201518160030155905050505050565b6000600854905090565b60008060003390506000600360008373ffffffffffffffffffffffffffffffffffffffff1673ffffffffffffffffffffffffffffffffffffffff16815260200190815260200160002060030160019054906101000a900473ffffffffffffffffffffffffffffffffffffffff16905081819350935050509091565b60006060806000808511801561097357506007548511155b6109b2576040517f08c379a00000000000000000000000000000000000000000000000000000000081526004016109a990611ca4565b60405180910390fd5b6000806000878152602001908152602001600020604051806080016040529081600082015481526020016001820180546109eb90611f8c565b80601f0160208091040260200160405190810160405280929190818152602001828054610a1790611f8c565b8015610a645780601f10610a3957610100808354040283529160200191610a64565b820191906000526020600020905b815481529060010190602001808311610a4757829003601f168201915b50505050508152602001600282018054610a7d90611f8c565b80601f0160208091040260200160405190810160405280929190818152602001828054610aa990611f8c565b8015610af65780601f10610acb57610100808354040283529160200191610af6565b820191906000526020600020905b815481529060010190602001808311610ad957829003601f168201915b50505050508152602001600382015481525050905080600001518160200151826040015183606001519450945094509450509193509193565b6000600754905090565b60606000806000806000600190505b6007548111610b9d5781600080838152602001908152602001600020600301541115610b8a576000808281526020019081526020016000206003015491508092505b8080610b9590611d5f565b915050610b48565b506000808381526020019081526020016000206001018282828054610bc190611f8c565b80601f0160208091040260200160405190810160405280929190818152602001828054610bed90611f8c565b8015610c3a5780601f10610c0f57610100808354040283529160200191610c3a565b820191906000526020600020905b815481529060010190602001808311610c1d57829003601f168201915b505050505092509450945094505050909192565b6060600080600080600160008773ffffffffffffffffffffffffffffffffffffffff1673ffffffffffffffffffffffffffffffffffffffff16815260200190815260200160002060405180608001604052908160008201548152602001600182018054610cba90611f8c565b80601f0160208091040260200160405190810160405280929190818152602001828054610ce690611f8c565b8015610d335780601f10610d0857610100808354040283529160200191610d33565b820191906000526020600020905b815481529060010190602001808311610d1657829003601f168201915b50505050508152602001600282018054610d4c90611f8c565b80601f0160208091040260200160405190810160405280929190818152602001828054610d7890611f8c565b8015610dc55780601f10610d9a57610100808354040283529160200191610dc5565b820191906000526020600020905b815481529060010190602001808311610da857829003601f168201915b505050505081526020016003820154815250509050806020015194506000600360008873ffffffffffffffffffffffffffffffffffffffff1673ffffffffffffffffffffffffffffffffffffffff1681526020019081526020016000209050806002015494508060030160019054906101000a900473ffffffffffffffffffffffffffffffffffffffff169250600073ffffffffffffffffffffffffffffffffffffffff168160030160019054906101000a900473ffffffffffffffffffffffffffffffffffffffff1673ffffffffffffffffffffffffffffffffffffffff161415935050509193509193565b3373ffffffffffffffffffffffffffffffffffffffff168173ffffffffffffffffffffffffffffffffffffffff1614610f20576040517f08c379a0000000000000000000000000000000000000000000000000000000008152600401610f17906122ad565b60405180910390fd5b600073ffffffffffffffffffffffffffffffffffffffff168273ffffffffffffffffffffffffffffffffffffffff1603610f8f576040517f08c379a0000000000000000000000000000000000000000000000000000000008152600401610f8690612319565b60405180910390fd5b6000600560008373ffffffffffffffffffffffffffffffffffffffff1673ffffffffffffffffffffffffffffffffffffffff1681526020019081526020016000205414611011576040517f08c379a000000000000000000000000000000000000000000000000000000000815260040161100890612385565b60405180910390fd5b81600460008373ffffffffffffffffffffffffffffffffffffffff1673ffffffffffffffffffffffffffffffffffffffff16815260200190815260200160002060006101000a81548173ffffffffffffffffffffffffffffffffffffffff021916908373ffffffffffffffffffffffffffffffffffffffff1602179055505050565b600660009054906101000a900460ff1681565b600960009054906101000a900473ffffffffffffffffffffffffffffffffffffffff1673ffffffffffffffffffffffffffffffffffffffff163373ffffffffffffffffffffffffffffffffffffffff1614611136576040517f08c379a000000000000000000000000000000000000000000000000000000000815260040161112d90611e19565b60405180910390fd5b600960009054906101000a900473ffffffffffffffffffffffffffffffffffffffff1673ffffffffffffffffffffffffffffffffffffffff168173ffffffffffffffffffffffffffffffffffffffff16146111c6576040517f08c379a00000000000000000000000000000000000000000000000000000000081526004016111bd90611eab565b60405180910390fd5b6001600660006101000a81548160ff021916908360028111156111ec576111eb611ab0565b5b021790555050565b60006060600060028081111561120d5761120c611ab0565b5b600660009054906101000a900460ff16600281111561122f5761122e611ab0565b5b1461126f576040517f08c379a0000000000000000000000000000000000000000000000000000000008152600401611266906123f1565b60405180910390fd5b60008411801561128157506007548411155b6112c0576040517f08c379a00000000000000000000000000000000000000000000000000000000081526004016112b79061245d565b60405180910390fd5b83600080868152602001908152602001600020600101600080878152602001908152602001600020600301548180546112f890611f8c565b80601f016020809104026020016040519081016040528092919081815260200182805461132490611f8c565b80156113715780601f1061134657610100808354040283529160200191611371565b820191906000526020600020905b81548152906001019060200180831161135457829003601f168201915b505050505091509250925092509193909250565b600960009054906101000a900473ffffffffffffffffffffffffffffffffffffffff1673ffffffffffffffffffffffffffffffffffffffff163373ffffffffffffffffffffffffffffffffffffffff1614611415576040517f08c379a000000000000000000000000000000000000000000000000000000000815260040161140c90611e19565b60405180910390fd5b600260008373ffffffffffffffffffffffffffffffffffffffff1673ffffffffffffffffffffffffffffffffffffffff16815260200190815260200160002060009054906101000a900460ff16156114a2576040517f08c379a0000000000000000000000000000000000000000000000000000000008152600401611499906124c9565b60405180910390fd5b8073ffffffffffffffffffffffffffffffffffffffff163373ffffffffffffffffffffffffffffffffffffffff1614611510576040517f08c379a000000000000000000000000000000000000000000000000000000000815260040161150790611f3d565b60405180910390fd5b6001600260008473ffffffffffffffffffffffffffffffffffffffff1673ffffffffffffffffffffffffffffffffffffffff16815260200190815260200160002060006101000a81548160ff0219169083151502179055506008600081548092919061157b90611d5f565b91905055505050565b6000604051905090565b600080fd5b600080fd5b6000819050919050565b6115ab81611598565b81146115b657600080fd5b50565b6000813590506115c8816115a2565b92915050565b600073ffffffffffffffffffffffffffffffffffffffff82169050919050565b60006115f9826115ce565b9050919050565b611609816115ee565b811461161457600080fd5b50565b60008135905061162681611600565b92915050565b600080604083850312156116435761164261158e565b5b6000611651858286016115b9565b925050602061166285828601611617565b9150509250929050565b6000602082840312156116825761168161158e565b5b600061169084828501611617565b91505092915050565b600080fd5b600080fd5b6000601f19601f8301169050919050565b7f4e487b7100000000000000000000000000000000000000000000000000000000600052604160045260246000fd5b6116ec826116a3565b810181811067ffffffffffffffff8211171561170b5761170a6116b4565b5b80604052505050565b600061171e611584565b905061172a82826116e3565b919050565b600067ffffffffffffffff82111561174a576117496116b4565b5b611753826116a3565b9050602081019050919050565b82818337600083830152505050565b600061178261177d8461172f565b611714565b90508281526020810184848401111561179e5761179d61169e565b5b6117a9848285611760565b509392505050565b600082601f8301126117c6576117c5611699565b5b81356117d684826020860161176f565b91505092915050565b6000806000606084860312156117f8576117f761158e565b5b600084013567ffffffffffffffff81111561181657611815611593565b5b611822868287016117b1565b935050602084013567ffffffffffffffff81111561184357611842611593565b5b61184f868287016117b1565b925050604061186086828701611617565b9150509250925092565b61187381611598565b82525050565b600060208201905061188e600083018461186a565b92915050565b61189d816115ee565b82525050565b60006040820190506118b86000830185611894565b6118c56020830184611894565b9392505050565b6000602082840312156118e2576118e161158e565b5b60006118f0848285016115b9565b91505092915050565b600081519050919050565b600082825260208201905092915050565b60005b83811015611933578082015181840152602081019050611918565b60008484015250505050565b600061194a826118f9565b6119548185611904565b9350611964818560208601611915565b61196d816116a3565b840191505092915050565b600060808201905061198d600083018761186a565b818103602083015261199f818661193f565b905081810360408301526119b3818561193f565b90506119c2606083018461186a565b95945050505050565b600060608201905081810360008301526119e5818661193f565b90506119f4602083018561186a565b611a01604083018461186a565b949350505050565b60008115159050919050565b611a1e81611a09565b82525050565b60006080820190508181036000830152611a3e818761193f565b9050611a4d602083018661186a565b611a5a6040830185611a15565b611a676060830184611894565b95945050505050565b60008060408385031215611a8757611a8661158e565b5b6000611a9585828601611617565b9250506020611aa685828601611617565b9150509250929050565b7f4e487b7100000000000000000000000000000000000000000000000000000000600052602160045260246000fd5b60038110611af057611aef611ab0565b5b50565b6000819050611b0182611adf565b919050565b6000611b1182611af3565b9050919050565b611b2181611b06565b82525050565b6000602082019050611b3c6000830184611b18565b92915050565b6000606082019050611b57600083018661186a565b8181036020830152611b69818561193f565b9050611b78604083018461186a565b949350505050565b7f456c656374696f6e206973206e6f74206f6e676f696e67000000000000000000600082015250565b6000611bb6601783611904565b9150611bc182611b80565b602082019050919050565b60006020820190508181036000830152611be581611ba9565b9050919050565b7f596f7520617265206e6f7420617574686f72697a656420746f20766f74650000600082015250565b6000611c22601e83611904565b9150611c2d82611bec565b602082019050919050565b60006020820190508181036000830152611c5181611c15565b9050919050565b7f496e76616c69642063616e646964617465204944000000000000000000000000600082015250565b6000611c8e601483611904565b9150611c9982611c58565b602082019050919050565b60006020820190508181036000830152611cbd81611c81565b9050919050565b7f596f75206861766520616c726561647920766f74656400000000000000000000600082015250565b6000611cfa601683611904565b9150611d0582611cc4565b602082019050919050565b60006020820190508181036000830152611d2981611ced565b9050919050565b7f4e487b7100000000000000000000000000000000000000000000000000000000600052601160045260246000fd5b6000611d6a82611598565b91507fffffffffffffffffffffffffffffffffffffffffffffffffffffffffffffffff8203611d9c57611d9b611d30565b5b600182019050919050565b7f4f6e6c7920746865206f776e65722063616e20706572666f726d20746869732060008201527f6f7065726174696f6e0000000000000000000000000000000000000000000000602082015250565b6000611e03602983611904565b9150611e0e82611da7565b604082019050919050565b60006020820190508181036000830152611e3281611df6565b9050919050565b7f596f7520617265206e6f7420617574686f72697a656420746f2073746172742060008201527f74686520656c656374696f6e0000000000000000000000000000000000000000602082015250565b6000611e95602c83611904565b9150611ea082611e39565b604082019050919050565b60006020820190508181036000830152611ec481611e88565b9050919050565b7f4f6e6c7920636f6e7472616374206f776e65722063616e20706572666f726d2060008201527f7468697320616374696f6e000000000000000000000000000000000000000000602082015250565b6000611f27602b83611904565b9150611f3282611ecb565b604082019050919050565b60006020820190508181036000830152611f5681611f1a565b9050919050565b7f4e487b7100000000000000000000000000000000000000000000000000000000600052602260045260246000fd5b60006002820490506001821680611fa457607f821691505b602082108103611fb757611fb6611f5d565b5b50919050565b60008190508160005260206000209050919050565b60006020601f8301049050919050565b600082821b905092915050565b60006008830261201f7fffffffffffffffffffffffffffffffffffffffffffffffffffffffffffffffff82611fe2565b6120298683611fe2565b95508019841693508086168417925050509392505050565b6000819050919050565b600061206661206161205c84611598565b612041565b611598565b9050919050565b6000819050919050565b6120808361204b565b61209461208c8261206d565b848454611fef565b825550505050565b600090565b6120a961209c565b6120b4818484612077565b505050565b5b818110156120d8576120cd6000826120a1565b6001810190506120ba565b5050565b601f82111561211d576120ee81611fbd565b6120f784611fd2565b81016020851015612106578190505b61211a61211285611fd2565b8301826120b9565b50505b505050565b600082821c905092915050565b600061214060001984600802612122565b1980831691505092915050565b6000612159838361212f565b9150826002028217905092915050565b612172826118f9565b67ffffffffffffffff81111561218b5761218a6116b4565b5b6121958254611f8c565b6121a08282856120dc565b600060209050601f8311600181146121d357600084156121c1578287015190505b6121cb858261214d565b865550612233565b601f1984166121e186611fbd565b60005b82811015612209578489015182556001820191506020850194506020810190506121e4565b868310156122265784890151612222601f89168261212f565b8355505b6001600288020188555050505b505050505050565b7f4f6e6c7920746865206f776e65722063616e2064656c6567617465207468656960008201527f7220766f74652e00000000000000000000000000000000000000000000000000602082015250565b6000612297602783611904565b91506122a28261223b565b604082019050919050565b600060208201905081810360008301526122c68161228a565b9050919050565b7f496e76616c69642064656c656761746520616464726573732e00000000000000600082015250565b6000612303601983611904565b915061230e826122cd565b602082019050919050565b60006020820190508181036000830152612332816122f6565b9050919050565b7f4f776e65722068617320616c726561647920766f7465642e0000000000000000600082015250565b600061236f601883611904565b915061237a82612339565b602082019050919050565b6000602082019050818103600083015261239e81612362565b9050919050565b7f456c656374696f6e206973206e6f742079657420636f6d706c657465642e0000600082015250565b60006123db601e83611904565b91506123e6826123a5565b602082019050919050565b6000602082019050818103600083015261240a816123ce565b9050919050565b7f496e76616c69642063616e6469646174652049442e0000000000000000000000600082015250565b6000612447601583611904565b915061245282612411565b602082019050919050565b600060208201905081810360008301526124768161243a565b9050919050565b7f5468697320766f74657220616c72656164792065786973747300000000000000600082015250565b60006124b3601983611904565b91506124be8261247d565b602082019050919050565b600060208201905081810360008301526124e2816124a6565b905091905056fea26469706673582212206ca763f1cc5e7c80926245599ab9ff06243dc21846788be54a244b9edfb7555e64736f6c63430008130033",
  "immutableReferences": {},
  "source": "// SPDX-License-Identifier:UNLICENSED\npragma solidity ^0.8.0;\n\ncontract Election {\n \n\n    struct Candidate {\n        uint id;\n        string name;\n        string proposal;\n        uint voteCount;\n    }\n    struct Voter {\n        string name;\n        bool voted;\n        uint Vote;\n        bool delegated;\n        address delegate;\n    }\n\n    mapping(uint => Candidate) candidates;\n    mapping(address => Candidate) Candidates; \n    mapping(address => bool) voters;    \n    mapping (address => Voter) voter;\n    mapping(address => address) delegates;\n    mapping(address => uint256) votesCount;\n\n    enum State { NOT_STARTED, ONGOING, FINISHED}\n    State public checkstate;\n     uint candidatesCount;\n     uint votersCount;\n     address  owner;\n\n    constructor() {\n        owner = msg.sender;\n        checkstate = State.NOT_STARTED;\n    }\n\n    modifier onlyOwner() {\n        require(msg.sender == owner, \"Only the owner can perform this operation\");\n        _;\n    }\n\n     /** Add a new candidate\n    This function helps to add a new candidate to the election, which can be done only by the admin before the election starts. This function takes the following parameters:       \tstring memory _name  Name of the candidate\n       \tstring memory _proposal  Election promise of the candidate\n       \taddress owner  Owner of the contract**/\n\n    function addCandidate(string memory _name, string memory _proposal, address _owner) public onlyOwner {\n        require(msg.sender == _owner, \"Only contract owner can perform this action\");\n        candidatesCount++;\n        candidates[candidatesCount] = Candidate(candidatesCount, _name, _proposal, 0);\n    }\n\n     /** Add a new voter\n     This function helps to add a voter, which can be done only once by the admin before the election starts. This function takes the given parameters:\n        \taddress _voter  Ethereum address of the voter\n        \taddress owner  Owner of the contract**/\n\n    function addVoter(address _voter, address _owner) public onlyOwner {\n        require(!voters[_voter], \"This voter already exists\");\n        require(msg.sender == _owner, \"Only contract owner can perform this action\");\n        voters[_voter] = true;\n        votersCount++;\n    }\n\n     /**\tCast the vote\n     This function helps voter to cast their vote. It has the below two input arguments:\n         \tCandidate ID is the candidate who has to be voted\n         \tVoter address**/\n\n    function vote(uint _candidateId, address _voter) public {\n        require(checkstate == State.ONGOING, \"Election is not ongoing\");\n        require(voters[_voter], \"You are not authorized to vote\");\n        require(_candidateId > 0 && _candidateId <= candidatesCount, \"Invalid candidate ID\");\n        require(!voter[_voter].voted, \"You have already voted\");\n\n          voter[_voter].voted = true;\n          voter[_voter].Vote = _candidateId;\n          candidates[_candidateId].voteCount++;\n    }\n       \n     /**\tDisplay the candidate details\n     This function helps to show candidate details. The input to this function is the ID of the candidate, and in the response, it returns the following parameters:\n        \tID  ID of the candidate\n        \tProposal  Election promise of the candidate\n        \tName  Name of the candidate**/\n\n    function displayCandidate(uint _id) public view returns (uint, string memory, string memory, uint) {\n        require(_id > 0 && _id <= candidatesCount, \"Invalid candidate ID\");\n\n        Candidate memory candidate = candidates[_id];\n\n        return (candidate.id, candidate.name, candidate.proposal, candidate.voteCount);\n    }\n\n     /** \tStart Election\n     This function helps the admin to start the election (setting the Election state to ONGOING). \n     This function takes the address of the contract owner as an input parameter.**/\n\n    function startElection(address _owner) public onlyOwner {\n        require(_owner == owner, \"You are not authorized to start the election\");\n\n        checkstate = State.ONGOING;\n    }\n\n     /**\tEnd the election\n     This function helps the admin to end the ongoing election. \n     This function can be called only by the admin (contract owner).**/\n\n    function endElection(address _owner) public onlyOwner {\n        require(checkstate == State.ONGOING, \"Election is not ongoing\");\n        require(_owner == owner, \"You are not authorized to start the election\");\n\n        checkstate = State.FINISHED;\n    }\n\n     /**\tDelegate the voting right\n     This function helps to delegate a voters voting rights to someone else.  This function can be called only when the election is going on and by a voter who has not yet voted. This function has the following two input parameters:\n        \tDelegate person address\n        \tVoter address**/\n\n    function delegateVote(address delegateAddress, address ownerAddress) public {\n         require(ownerAddress == msg.sender, \"Only the owner can delegate their vote.\");\n         require(delegateAddress != address(0), \"Invalid delegate address.\");      \n         require(votesCount[ownerAddress] == 0, \"Owner has already voted.\");       \n    delegates[ownerAddress] = delegateAddress;\n    }\n\n     /**\tShow the Winner of the election\n     This function helps to show the winner of the election. This function has no input arguments, but it returns the following fields:\n         \tCandidate name\n         \tCandidate ID\n         \tVotes secured**/\n    \n    function showWinner() public view returns (string memory, uint, uint) {\n         uint winningCandidateId;\n         uint voteCount;\n\n         for (uint i = 1; i <= candidatesCount; i++) {\n            if (candidates[i].voteCount > voteCount) {\n              voteCount = candidates[i].voteCount;\n              winningCandidateId = i;\n        }\n    }\n\n    return (candidates[winningCandidateId].name, winningCandidateId, voteCount);\n    }\n\n       /**\tShow election results (candidate wise)\n       This function helps to show the votes received by any given candidate. \n       This function takes the candidate ID as input and returns the below fields in response.\n           \tCandidate ID\n           \tCandidate name\n           \tNumber of votes received**/\n\n    function showResult(uint _candidateId) public view returns (uint, string memory, uint) {\n         require(checkstate == State.FINISHED, \"Election is not yet completed.\");\n         require(_candidateId > 0 && _candidateId <= candidatesCount, \"Invalid candidate ID.\");\n\n    return (_candidateId, candidates[_candidateId].name, candidates[_candidateId].voteCount);\n    }\n     \n      // view candidate count \n    function candidate_Count() public view returns (uint) {\n    return candidatesCount;\n    }\n\n      //view voters count\n    function voter_Count() public view returns (uint) {\n    return votersCount;\n    }\n\n      /**\tView the voters profile\n      This function helps to view the voter profile. It takes the voters address as input and returns the following fields in response:\n           \tVoters name\n           \tThe candidate who has been voted\n           \tIf the vote is delegated or not**/\n\n    function voterProfile(address voterAddress) public view returns (string memory name, uint Vote, bool delegated, address delegate) {\n         Candidate memory candidate = Candidates[voterAddress];\n         name = candidate.name;\n         Voter storage voterss = voter[voterAddress];\n         Vote = voterss.Vote;\n         delegate = voterss.delegate;\n         delegated = voterss.delegate != address(0);\n    }\n\n       // This function is used to view voter . it takes delegate address and voters address\n\n    function getVoter() public view returns (address, address) {\n         address voterAddress = msg.sender;\n         address delegateAddress = voter[voterAddress].delegate;\n    return (voterAddress, delegateAddress);\n    }\n\n}\n",
  "sourcePath": "C:\\Users\\Administrator\\Desktop\\VotingSystem\\contracts\\Election.sol",
  "compiler": {
    "name": "solc",
    "version": "0.8.19+commit.7dd6d404.Emscripten.clang"
  },
  "schemaVersion": "3.4.13",
  "updatedAt": "2023-04-08T10:38:10.128Z",
  "networkType": "ethereum",
  "devdoc": {
    "kind": "dev",
    "methods": {},
    "version": 1
  },
  "userdoc": {
    "kind": "user",
    "methods": {
      "addCandidate(string,string,address)": {
        "notice": "Add a new candidate This function helps to add a new candidate to the election, which can be done only by the admin before the election starts. This function takes the following parameters:       \tstring memory _name  Name of the candidate \tstring memory _proposal  Election promise of the candidate \taddress owner  Owner of the contract*"
      },
      "addVoter(address,address)": {
        "notice": "Add a new voter This function helps to add a voter, which can be done only once by the admin before the election starts. This function takes the given parameters: \taddress _voter  Ethereum address of the voter \taddress owner  Owner of the contract*"
      },
      "delegateVote(address,address)": {
        "notice": "Delegate the voting right This function helps to delegate a voters voting rights to someone else.  This function can be called only when the election is going on and by a voter who has not yet voted. This function has the following two input parameters: \tDelegate person address \tVoter address*"
      },
      "displayCandidate(uint256)": {
        "notice": "Display the candidate details This function helps to show candidate details. The input to this function is the ID of the candidate, and in the response, it returns the following parameters: \tID  ID of the candidate \tProposal  Election promise of the candidate \tName  Name of the candidate*"
      },
      "endElection(address)": {
        "notice": "End the election This function helps the admin to end the ongoing election.  This function can be called only by the admin (contract owner).*"
      },
      "showResult(uint256)": {
        "notice": "Show election results (candidate wise) This function helps to show the votes received by any given candidate.  This function takes the candidate ID as input and returns the below fields in response. \tCandidate ID \tCandidate name \tNumber of votes received*"
      },
      "showWinner()": {
        "notice": "Show the Winner of the election This function helps to show the winner of the election. This function has no input arguments, but it returns the following fields: \tCandidate name \tCandidate ID \tVotes secured*"
      },
      "startElection(address)": {
        "notice": "Start Election This function helps the admin to start the election (setting the Election state to ONGOING).  This function takes the address of the contract owner as an input parameter.*"
      },
      "vote(uint256,address)": {
        "notice": "Cast the vote This function helps voter to cast their vote. It has the below two input arguments: \tCandidate ID is the candidate who has to be voted \tVoter address*"
      },
      "voterProfile(address)": {
        "notice": "View the voters profile This function helps to view the voter profile. It takes the voters address as input and returns the following fields in response: \tVoters name \tThe candidate who has been voted \tIf the vote is delegated or not*"
      }
    },
    "version": 1
  }
}